{
  "abi": [
    {
      "anonymous": false,
      "inputs": [
        {
          "indexed": true,
          "internalType": "address",
          "name": "changedBy",
          "type": "address"
        },
        {
          "indexed": false,
          "internalType": "uint256",
          "name": "oldConfigHash",
          "type": "uint256"
        },
        {
          "indexed": false,
          "internalType": "uint256",
          "name": "newConfigHash",
          "type": "uint256"
        }
      ],
      "name": "ConfigHashChanged",
      "type": "event"
    },
    {
      "anonymous": false,
      "inputs": [
        {
          "indexed": true,
          "internalType": "uint256",
          "name": "fromAddress",
          "type": "uint256"
        },
        {
          "indexed": true,
          "internalType": "address",
          "name": "toAddress",
          "type": "address"
        },
        {
          "indexed": false,
          "internalType": "uint256[]",
          "name": "payload",
          "type": "uint256[]"
        }
      ],
      "name": "ConsumedMessageToL1",
      "type": "event"
    },
    {
      "anonymous": false,
      "inputs": [
        {
          "indexed": true,
          "internalType": "address",
          "name": "fromAddress",
          "type": "address"
        },
        {
          "indexed": true,
          "internalType": "uint256",
          "name": "toAddress",
          "type": "uint256"
        },
        {
          "indexed": true,
          "internalType": "uint256",
          "name": "selector",
          "type": "uint256"
        },
        {
          "indexed": false,
          "internalType": "uint256[]",
          "name": "payload",
          "type": "uint256[]"
        },
        {
          "indexed": false,
          "internalType": "uint256",
          "name": "nonce",
          "type": "uint256"
        }
      ],
      "name": "ConsumedMessageToL2",
      "type": "event"
    },
    {
      "anonymous": false,
      "inputs": [],
      "name": "Finalized",
      "type": "event"
    },
    {
      "anonymous": false,
      "inputs": [
        {
          "indexed": true,
          "internalType": "uint256",
          "name": "fromAddress",
          "type": "uint256"
        },
        {
          "indexed": true,
          "internalType": "address",
          "name": "toAddress",
          "type": "address"
        },
        {
          "indexed": false,
          "internalType": "uint256[]",
          "name": "payload",
          "type": "uint256[]"
        }
      ],
      "name": "LogMessageToL1",
      "type": "event"
    },
    {
      "anonymous": false,
      "inputs": [
        {
          "indexed": true,
          "internalType": "address",
          "name": "fromAddress",
          "type": "address"
        },
        {
          "indexed": true,
          "internalType": "uint256",
          "name": "toAddress",
          "type": "uint256"
        },
        {
          "indexed": true,
          "internalType": "uint256",
          "name": "selector",
          "type": "uint256"
        },
        {
          "indexed": false,
          "internalType": "uint256[]",
          "name": "payload",
          "type": "uint256[]"
        },
        {
          "indexed": false,
          "internalType": "uint256",
          "name": "nonce",
          "type": "uint256"
        },
        {
          "indexed": false,
          "internalType": "uint256",
          "name": "fee",
          "type": "uint256"
        }
      ],
      "name": "LogMessageToL2",
      "type": "event"
    },
    {
      "anonymous": false,
      "inputs": [
        {
          "indexed": false,
          "internalType": "address",
          "name": "acceptedGovernor",
          "type": "address"
        }
      ],
      "name": "LogNewGovernorAccepted",
      "type": "event"
    },
    {
      "anonymous": false,
      "inputs": [
        {
          "indexed": false,
          "internalType": "address",
          "name": "nominatedGovernor",
          "type": "address"
        }
      ],
      "name": "LogNominatedGovernor",
      "type": "event"
    },
    {
      "anonymous": false,
      "inputs": [],
      "name": "LogNominationCancelled",
      "type": "event"
    },
    {
      "anonymous": false,
      "inputs": [
        {
          "indexed": false,
          "internalType": "address",
          "name": "operator",
          "type": "address"
        }
      ],
      "name": "LogOperatorAdded",
      "type": "event"
    },
    {
      "anonymous": false,
      "inputs": [
        {
          "indexed": false,
          "internalType": "address",
          "name": "operator",
          "type": "address"
        }
      ],
      "name": "LogOperatorRemoved",
      "type": "event"
    },
    {
      "anonymous": false,
      "inputs": [
        {
          "indexed": false,
          "internalType": "address",
          "name": "removedGovernor",
          "type": "address"
        }
      ],
      "name": "LogRemovedGovernor",
      "type": "event"
    },
    {
      "anonymous": false,
      "inputs": [
        {
          "indexed": false,
          "internalType": "bytes32",
          "name": "stateTransitionFact",
          "type": "bytes32"
        }
      ],
      "name": "LogStateTransitionFact",
      "type": "event"
    },
    {
      "anonymous": false,
      "inputs": [
        {
          "indexed": false,
          "internalType": "uint256",
          "name": "globalRoot",
          "type": "uint256"
        },
        {
          "indexed": false,
          "internalType": "int256",
          "name": "blockNumber",
          "type": "int256"
        },
        {
          "indexed": false,
          "internalType": "uint256",
          "name": "blockHash",
          "type": "uint256"
        }
      ],
      "name": "LogStateUpdate",
      "type": "event"
    },
    {
      "anonymous": false,
      "inputs": [
        {
          "indexed": true,
          "internalType": "address",
          "name": "fromAddress",
          "type": "address"
        },
        {
          "indexed": true,
          "internalType": "uint256",
          "name": "toAddress",
          "type": "uint256"
        },
        {
          "indexed": true,
          "internalType": "uint256",
          "name": "selector",
          "type": "uint256"
        },
        {
          "indexed": false,
          "internalType": "uint256[]",
          "name": "payload",
          "type": "uint256[]"
        },
        {
          "indexed": false,
          "internalType": "uint256",
          "name": "nonce",
          "type": "uint256"
        }
      ],
      "name": "MessageToL2Canceled",
      "type": "event"
    },
    {
      "anonymous": false,
      "inputs": [
        {
          "indexed": true,
          "internalType": "address",
          "name": "fromAddress",
          "type": "address"
        },
        {
          "indexed": true,
          "internalType": "uint256",
          "name": "toAddress",
          "type": "uint256"
        },
        {
          "indexed": true,
          "internalType": "uint256",
          "name": "selector",
          "type": "uint256"
        },
        {
          "indexed": false,
          "internalType": "uint256[]",
          "name": "payload",
          "type": "uint256[]"
        },
        {
          "indexed": false,
          "internalType": "uint256",
          "name": "nonce",
          "type": "uint256"
        }
      ],
      "name": "MessageToL2CancellationStarted",
      "type": "event"
    },
    {
      "anonymous": false,
      "inputs": [
        {
          "indexed": true,
          "internalType": "address",
          "name": "changedBy",
          "type": "address"
        },
        {
          "indexed": false,
          "internalType": "uint256",
          "name": "oldProgramHash",
          "type": "uint256"
        },
        {
          "indexed": false,
          "internalType": "uint256",
          "name": "newProgramHash",
          "type": "uint256"
        }
      ],
      "name": "ProgramHashChanged",
      "type": "event"
    },
    {
      "inputs": [
        {
          "internalType": "uint256",
          "name": "toAddress",
          "type": "uint256"
        },
        {
          "internalType": "uint256",
          "name": "selector",
          "type": "uint256"
        },
        {
          "internalType": "uint256[]",
          "name": "payload",
          "type": "uint256[]"
        },
        {
          "internalType": "uint256",
          "name": "nonce",
          "type": "uint256"
        }
      ],
      "name": "cancelL1ToL2Message",
      "outputs": [
        {
          "internalType": "bytes32",
          "name": "",
          "type": "bytes32"
        }
      ],
      "stateMutability": "nonpayable",
      "type": "function"
    },
    {
      "inputs": [],
      "name": "configHash",
      "outputs": [
        {
          "internalType": "uint256",
          "name": "",
          "type": "uint256"
        }
      ],
      "stateMutability": "view",
      "type": "function"
    },
    {
      "inputs": [
        {
          "internalType": "uint256",
          "name": "fromAddress",
          "type": "uint256"
        },
        {
          "internalType": "uint256[]",
          "name": "payload",
          "type": "uint256[]"
        }
      ],
      "name": "consumeMessageFromL2",
      "outputs": [
        {
          "internalType": "bytes32",
          "name": "",
          "type": "bytes32"
        }
      ],
      "stateMutability": "nonpayable",
      "type": "function"
    },
    {
      "inputs": [],
      "name": "finalize",
      "outputs": [],
      "stateMutability": "nonpayable",
      "type": "function"
    },
    {
      "inputs": [],
      "name": "getMaxL1MsgFee",
      "outputs": [
        {
          "internalType": "uint256",
          "name": "",
          "type": "uint256"
        }
      ],
      "stateMutability": "pure",
      "type": "function"
    },
    {
      "inputs": [],
      "name": "identify",
      "outputs": [
        {
          "internalType": "string",
          "name": "",
          "type": "string"
        }
      ],
      "stateMutability": "pure",
      "type": "function"
    },
    {
      "inputs": [
        {
          "internalType": "bytes",
          "name": "data",
          "type": "bytes"
        }
      ],
      "name": "initialize",
      "outputs": [],
      "stateMutability": "nonpayable",
      "type": "function"
    },
    {
      "inputs": [],
      "name": "isFinalized",
      "outputs": [
        {
          "internalType": "bool",
          "name": "",
          "type": "bool"
        }
      ],
      "stateMutability": "view",
      "type": "function"
    },
    {
      "inputs": [],
      "name": "isFrozen",
      "outputs": [
        {
          "internalType": "bool",
          "name": "",
          "type": "bool"
        }
      ],
      "stateMutability": "view",
      "type": "function"
    },
    {
      "inputs": [
        {
          "internalType": "address",
          "name": "user",
          "type": "address"
        }
      ],
      "name": "isOperator",
      "outputs": [
        {
          "internalType": "bool",
          "name": "",
          "type": "bool"
        }
      ],
      "stateMutability": "view",
      "type": "function"
    },
    {
      "inputs": [
        {
          "internalType": "bytes32",
          "name": "msgHash",
          "type": "bytes32"
        }
      ],
      "name": "l1ToL2MessageCancellations",
      "outputs": [
        {
          "internalType": "uint256",
          "name": "",
          "type": "uint256"
        }
      ],
      "stateMutability": "view",
      "type": "function"
    },
    {
      "inputs": [],
      "name": "l1ToL2MessageNonce",
      "outputs": [
        {
          "internalType": "uint256",
          "name": "",
          "type": "uint256"
        }
      ],
      "stateMutability": "view",
      "type": "function"
    },
    {
      "inputs": [
        {
          "internalType": "bytes32",
          "name": "msgHash",
          "type": "bytes32"
        }
      ],
      "name": "l1ToL2Messages",
      "outputs": [
        {
          "internalType": "uint256",
          "name": "",
          "type": "uint256"
        }
      ],
      "stateMutability": "view",
      "type": "function"
    },
    {
      "inputs": [
        {
          "internalType": "bytes32",
          "name": "msgHash",
          "type": "bytes32"
        }
      ],
      "name": "l2ToL1Messages",
      "outputs": [
        {
          "internalType": "uint256",
          "name": "",
          "type": "uint256"
        }
      ],
      "stateMutability": "view",
      "type": "function"
    },
    {
      "inputs": [],
      "name": "messageCancellationDelay",
      "outputs": [
        {
          "internalType": "uint256",
          "name": "",
          "type": "uint256"
        }
      ],
      "stateMutability": "view",
      "type": "function"
    },
    {
      "inputs": [],
      "name": "programHash",
      "outputs": [
        {
          "internalType": "uint256",
          "name": "",
          "type": "uint256"
        }
      ],
      "stateMutability": "view",
      "type": "function"
    },
    {
      "inputs": [
        {
          "internalType": "address",
          "name": "newOperator",
          "type": "address"
        }
      ],
      "name": "registerOperator",
      "outputs": [],
      "stateMutability": "nonpayable",
      "type": "function"
    },
    {
      "inputs": [
        {
          "internalType": "uint256",
          "name": "toAddress",
          "type": "uint256"
        },
        {
          "internalType": "uint256",
          "name": "selector",
          "type": "uint256"
        },
        {
          "internalType": "uint256[]",
          "name": "payload",
          "type": "uint256[]"
        }
      ],
      "name": "sendMessageToL2",
      "outputs": [
        {
          "internalType": "bytes32",
          "name": "",
          "type": "bytes32"
        },
        {
          "internalType": "uint256",
          "name": "",
          "type": "uint256"
        }
      ],
      "stateMutability": "payable",
      "type": "function"
    },
    {
      "inputs": [
        {
          "internalType": "uint256",
          "name": "newConfigHash",
          "type": "uint256"
        }
      ],
      "name": "setConfigHash",
      "outputs": [],
      "stateMutability": "nonpayable",
      "type": "function"
    },
    {
      "inputs": [
        {
          "internalType": "uint256",
          "name": "delayInSeconds",
          "type": "uint256"
        }
      ],
      "name": "setMessageCancellationDelay",
      "outputs": [],
      "stateMutability": "nonpayable",
      "type": "function"
    },
    {
      "inputs": [
        {
          "internalType": "uint256",
          "name": "newProgramHash",
          "type": "uint256"
        }
      ],
      "name": "setProgramHash",
      "outputs": [],
      "stateMutability": "nonpayable",
      "type": "function"
    },
    {
      "inputs": [],
      "name": "starknetAcceptGovernance",
      "outputs": [],
      "stateMutability": "nonpayable",
      "type": "function"
    },
    {
      "inputs": [],
      "name": "starknetCancelNomination",
      "outputs": [],
      "stateMutability": "nonpayable",
      "type": "function"
    },
    {
      "inputs": [
        {
          "internalType": "address",
          "name": "user",
          "type": "address"
        }
      ],
      "name": "starknetIsGovernor",
      "outputs": [
        {
          "internalType": "bool",
          "name": "",
          "type": "bool"
        }
      ],
      "stateMutability": "view",
      "type": "function"
    },
    {
      "inputs": [
        {
          "internalType": "address",
          "name": "newGovernor",
          "type": "address"
        }
      ],
      "name": "starknetNominateNewGovernor",
      "outputs": [],
      "stateMutability": "nonpayable",
      "type": "function"
    },
    {
      "inputs": [
        {
          "internalType": "address",
          "name": "governorForRemoval",
          "type": "address"
        }
      ],
      "name": "starknetRemoveGovernor",
      "outputs": [],
      "stateMutability": "nonpayable",
      "type": "function"
    },
    {
      "inputs": [
        {
          "internalType": "uint256",
          "name": "toAddress",
          "type": "uint256"
        },
        {
          "internalType": "uint256",
          "name": "selector",
          "type": "uint256"
        },
        {
          "internalType": "uint256[]",
          "name": "payload",
          "type": "uint256[]"
        },
        {
          "internalType": "uint256",
          "name": "nonce",
          "type": "uint256"
        }
      ],
      "name": "startL1ToL2MessageCancellation",
      "outputs": [
        {
          "internalType": "bytes32",
          "name": "",
          "type": "bytes32"
        }
      ],
      "stateMutability": "nonpayable",
      "type": "function"
    },
    {
      "inputs": [],
      "name": "stateBlockHash",
      "outputs": [
        {
          "internalType": "uint256",
          "name": "",
          "type": "uint256"
        }
      ],
      "stateMutability": "view",
      "type": "function"
    },
    {
      "inputs": [],
      "name": "stateBlockNumber",
      "outputs": [
        {
          "internalType": "int256",
          "name": "",
          "type": "int256"
        }
      ],
      "stateMutability": "view",
      "type": "function"
    },
    {
      "inputs": [],
      "name": "stateRoot",
      "outputs": [
        {
          "internalType": "uint256",
          "name": "",
          "type": "uint256"
        }
      ],
      "stateMutability": "view",
      "type": "function"
    },
    {
      "inputs": [
        {
          "internalType": "address",
          "name": "removedOperator",
          "type": "address"
        }
      ],
      "name": "unregisterOperator",
      "outputs": [],
      "stateMutability": "nonpayable",
      "type": "function"
    },
    {
      "inputs": [
        {
          "internalType": "uint256[]",
          "name": "programOutput",
          "type": "uint256[]"
        }
      ],
      "name": "updateState",
      "outputs": [],
      "stateMutability": "nonpayable",
      "type": "function"
    }
  ],
  "bytecode": {
    "object": "0x60a060405234801561001057600080fd5b5030606081901b608052612cee610031600039806109365250612cee6000f3fe6080604052600436106101e35760003560e01c80638303bd8a1161010257806396115bc211610095578063e1f1176d11610064578063e1f1176d14610515578063e37fec251461052a578063e87e73321461053f578063eeb728661461055f576101e3565b806396115bc2146104955780639be446bf146104b5578063a46efaf3146104d5578063c99d397f146104f5576101e3565b80638d4e4083116100d15780638d4e40831461043657806391a66a261461044b578063946be3ed1461046b5780639588eca214610480576101e3565b80638303bd8a146103cc57806384f921cd146103e1578063853e2461146104015780638a9bf09014610421576101e3565b80633e3aa6c51161017a5780636170ff1b116101495780636170ff1b1461034c5780636d70f7ae1461036c57806377c7d7a91461038c5780637a98660b146103ac576101e3565b80633e3aa6c5146102e1578063439fab91146103025780634bb278f31461032257806354eccba414610337576101e3565b806335befa5d116101b657806335befa5d146102755780633682a4501461028a578063382d83e3146102ac5780633d07b336146102c1576101e3565b8063018cccdf146101e857806301a01590146102135780632c9dd5c01461024057806333eeb14714610260575b600080fd5b3480156101f457600080fd5b506101fd610581565b60405161020a919061235d565b60405180910390f35b34801561021f57600080fd5b5061023361022e366004611f37565b6105c6565b60405161020a9190612352565b34801561024c57600080fd5b506101fd61025b3660046120ae565b6105d7565b34801561026c57600080fd5b506102336106ba565b34801561028157600080fd5b506101fd6106bf565b34801561029657600080fd5b506102aa6102a5366004611f37565b6106d2565b005b3480156102b857600080fd5b506101fd610773565b3480156102cd57600080fd5b506102aa6102dc366004611f9a565b610786565b6102f46102ef3660046120f8565b61081a565b60405161020a929190612366565b34801561030e57600080fd5b506102aa61031d366004611fb2565b610934565b34801561032e57600080fd5b506102aa610a7c565b34801561034357600080fd5b506101fd610b14565b34801561035857600080fd5b506101fd610367366004612149565b610b20565b34801561037857600080fd5b50610233610387366004611f37565b610c62565b34801561039857600080fd5b506101fd6103a7366004611f9a565b610c8f565b3480156103b857600080fd5b506101fd6103c7366004612149565b610caa565b3480156103d857600080fd5b506101fd610d61565b3480156103ed57600080fd5b506102aa6103fc366004611f37565b610d84565b34801561040d57600080fd5b506102aa61041c366004611f5a565b610d8d565b34801561042d57600080fd5b506101fd610ef3565b34801561044257600080fd5b50610233610f16565b34801561045757600080fd5b506102aa610466366004611f37565b610f39565b34801561047757600080fd5b506102aa610f42565b34801561048c57600080fd5b506101fd610f4c565b3480156104a157600080fd5b506102aa6104b0366004611f37565b610f5c565b3480156104c157600080fd5b506101fd6104d0366004611f9a565b610ff2565b3480156104e157600080fd5b506101fd6104f0366004611f9a565b610ffc565b34801561050157600080fd5b506102aa610510366004611f9a565b611006565b34801561052157600080fd5b506101fd611059565b34801561053657600080fd5b506102aa61107c565b34801561054b57600080fd5b506102aa61055a366004611f9a565b611084565b34801561056b57600080fd5b50610574611118565b60405161020a91906123a3565b60006105c16040518060400160405280602081526020017f535441524b4e45545f312e305f4d5347494e475f4c31544f4c325f4e4f4e434581525061114f565b905090565b60006105d182611183565b92915050565b60405160009081906105f59086903390869088908290602001612235565b60405160208183030381529060405280519060200120905060006106176111b2565b600083815260209190915260409020541161064d5760405162461bcd60e51b8152600401610644906128ee565b60405180910390fd5b336001600160a01b0316857f7a06c571aa77f34d9706c51e5d8122b5595aebeaa34233bfe866f22befb973b186866040516106899291906122ab565b60405180910390a3600161069b6111b2565b6000838152602091909152604090208054919091039055949350505050565b600090565b60006106c96111d5565b60010154905090565b6106db33611183565b6106f75760405162461bcd60e51b81526004016106449061283c565b61070081610c62565b61077057600161070e61121f565b6001600160a01b0383166000908152602091909152604090819020805460ff191692151592909217909155517f50a18c352ee1c02ffe058e15c2eb6e58be387c81e73cc1e17035286e54c19a5790610767908390612297565b60405180910390a15b50565b600061077d6111d5565b60020154905090565b61078e610f16565b156107ab5760405162461bcd60e51b815260040161064490612819565b6107b433611183565b6107d05760405162461bcd60e51b81526004016106449061283c565b337f393c6beb5756a944b2967f15f31ff671e312e945d7a84fd3bdcfd6b408b2dc796107fa611059565b83604051610809929190612366565b60405180910390a261077081611242565b6000806000341161083d5760405162461bcd60e51b815260040161064490612a3d565b610845610b14565b3411156108645760405162461bcd60e51b8152600401610644906125b0565b600061086e610581565b90506108b26040518060400160405280602081526020017f535441524b4e45545f312e305f4d5347494e475f4c31544f4c325f4e4f4e434581525082600101611260565b8587336001600160a01b03167fdb80dd488acf86d17c747445b0eabb5d57c541d3bd7b6b87af987858e5066b2b888886346040516108f394939291906122e3565b60405180910390a4600061090a8888888886611293565b9050346001016109186112d4565b6000838152602091909152604090205597909650945050505050565b7f00000000000000000000000000000000000000000000000000000000000000006001600160a01b031630141561097d5760405162461bcd60e51b81526004016106449061267c565b60006109876106ba565b602090810291508101808310156109b05760405162461bcd60e51b81526004016106449061288a565b60006109be82848688612abf565b8101906109cb9190611f37565b90503660006109dc8582888a612abf565b915091506109ea8282610a78565b3660006109f98887818c612abf565b90925090506001600160a01b03851615610a2457610a188583836112f7565b50505050505050610a78565b610a2c61141c565b15610a54578015610a4f5760405162461bcd60e51b81526004016106449061261e565b610a70565b610a5e828261142d565b610a68828261148d565b610a706114e7565b505050505050505b5050565b610a8533611183565b610aa15760405162461bcd60e51b81526004016106449061283c565b610aa9610f16565b15610ac65760405162461bcd60e51b815260040161064490612819565b610ae9604051806060016040528060318152602001612c88603191396001611260565b6040517f6823b073d48d6e3a7d385eeb601452d680e74bb46afe3255a7d778f3a9b1768190600090a1565b670de0b6b3a764000090565b60008486336001600160a01b03167f8abd2ec2e0a10c82f5b60ea00455fa96c41fd144f225fcc52b8d83d94f803ed8878787604051610b61939291906122bf565b60405180910390a46000610b788787878787611293565b90506000610b846112d4565b60008381526020919091526040902054905080610bb35760405162461bcd60e51b81526004016106449061277d565b6000610bbd61153e565b60008481526020919091526040902054905080610bec5760405162461bcd60e51b8152600401610644906129fb565b6000610bf6610d61565b8201905081811015610c1a5760405162461bcd60e51b815260040161064490612510565b80421015610c3a5760405162461bcd60e51b815260040161064490612547565b6000610c446112d4565b60008681526020919091526040902055509198975050505050505050565b6000610c6c61121f565b6001600160a01b0392909216600090815260209290925250604090205460ff1690565b6000610c996112d4565b600092835260205250604090205490565b60008486336001600160a01b03167f2e00dccd686fd6823ec7dc3e125582aa82881b6ff5f6b5a73856e1ea8338a3be878787604051610ceb939291906122bf565b60405180910390a46000610d028787878787611293565b90506000610d0e6112d4565b60008381526020919091526040902054905080610d3d5760405162461bcd60e51b81526004016106449061277d565b42610d4661153e565b60008481526020919091526040902055509695505050505050565b60006105c16040518060600160405280602d8152602001612bf1602d913961114f565b61077081611561565b610d9633610c62565b610db25760405162461bcd60e51b815260040161064490612952565b6000610dbc6111d5565b600101549050610dcc838361163c565b82826004818110610dd957fe5b90506020020135610de8611059565b14610e055760405162461bcd60e51b8152600401610644906124b6565b610e198383610e126111d5565b919061165c565b6005610e396001610e2c85848189612a94565b610e346111b2565b611706565b01610e536000610e4b85848189612a94565b610e346112d4565b01828114610e735760405162461bcd60e51b815260040161064490612746565b6000610e7d6111d5565b90507fd342ddf7a308dec111745b00315c14b7efb2bdae570a6856e088ed0c65a3576c816000015482600101548360020154604051610ebe93929190612a7e565b60405180910390a182600101816001015414610eec5760405162461bcd60e51b8152600401610644906125e7565b5050505050565b60006105c1604051806060016040528060238152602001612bce6023913961114f565b60006105c1604051806060016040528060318152602001612c886031913961114f565b61077081611afb565b610f4a611bf0565b565b6000610f566111d5565b54905090565b610f6533611183565b610f815760405162461bcd60e51b81526004016106449061283c565b610f8a81610c62565b15610770576000610f9961121f565b6001600160a01b0383166000908152602091909152604090819020805460ff191692151592909217909155517fec5f6c3a91a1efb1f9a308bb33c6e9e66bf9090fad0732f127dfdbf516d0625d90610767908390612297565b6000610c9961153e565b6000610c996111b2565b61100e610f16565b1561102b5760405162461bcd60e51b815260040161064490612819565b61103433611183565b6110505760405162461bcd60e51b81526004016106449061283c565b61077081611c45565b60006105c1604051806060016040528060218152602001612c1e6021913961114f565b610f4a611c67565b61108c610f16565b156110a95760405162461bcd60e51b815260040161064490612819565b6110b233611183565b6110ce5760405162461bcd60e51b81526004016106449061283c565b337f600a61c1b32ac42fb2fe76e8fc7582a98106668fc16dcd85567cd3937363e49b6110f8610ef3565b83604051611107929190612366565b60405180910390a261077081611cea565b60408051808201909152601981527f537461726b576172655f537461726b6e65745f323032335f3600000000000000602082015290565b600080826040516020016111639190612216565b60408051601f198184030181529190528051602090910120549392505050565b60008061118e611d0c565b6001600160a01b039390931660009081526020939093525050604090205460ff1690565b60006105c1604051806060016040528060238152602001612c3f60239139611d55565b600080604051806060016040528060278152602001612ba7602791396040516020016112019190612216565b60408051601f19818403018152919052805160209091012092915050565b60006105c1604051806060016040528060288152602001612b4f60289139611d55565b610770604051806060016040528060218152602001612c1e60219139825b6000826040516020016112739190612216565b604051602081830303815290604052805190602001209050818155505050565b6040516000906112b390339088908590899088908a90829060200161225f565b60405160208183030381529060405280519060200120905095945050505050565b60006105c1604051806060016040528060268152602001612c6260269139611d55565b611309836001600160a01b0316611d88565b6113255760405162461bcd60e51b8152600401610644906123d6565b60006060846001600160a01b031663439fab9160e01b858560405160240161134e929190612374565b60408051601f198184030181529181526020820180516001600160e01b03166001600160e01b031990941693909317909252905161138c9190612216565b600060405180830381855af49150503d80600081146113c7576040519150601f19603f3d011682016040523d82523d6000602084013e6113cc565b606091505b50915091508181906113f15760405162461bcd60e51b815260040161064491906123a3565b5080518190156114145760405162461bcd60e51b815260040161064491906123a3565b505050505050565b6000611426610ef3565b1515905090565b60c0811461144d5760405162461bcd60e51b81526004016106449061242d565b600061145c6020828486612abf565b8101906114699190611f9a565b9050806114885760405162461bcd60e51b8152600401610644906126e3565b505050565b600080600061149a611ed4565b6114a68587018761201f565b93509350935093506114b784611cea565b6114c083611d8e565b6114d2816114cc6111d5565b90611db0565b6114db82611242565b61141462069780611c45565b60006114f1611d0c565b6001810154909150600160a01b900460ff16156115205760405162461bcd60e51b8152600401610644906124e3565b60018101805460ff60a01b1916600160a01b17905561077033611dca565b60006105c1604051806060016040528060308152602001612b7760309139611d55565b61156a33611183565b6115865760405162461bcd60e51b81526004016106449061283c565b336001600160a01b03821614156115af5760405162461bcd60e51b8152600401610644906129a7565b60006115b9611d0c565b90506115c482611183565b6115e05760405162461bcd60e51b8152600401610644906129d5565b6001600160a01b03821660009081526020829052604090819020805460ff19169055517fd75f94825e770b8b512be8e74759e252ad00e102e38f50cce2f7c6f868a2959990611630908490612297565b60405180910390a15050565b60058111610a785760405162461bcd60e51b8152600401610644906127ab565b6001838101805490910190558181600281811061167557fe5b9050602002013583600101541461169e5760405162461bcd60e51b815260040161064490612979565b818160038181106116ab57fe5b60200291909101356002850155503660006116c68484611e50565b915091506116d48282611e6c565b8554146116f35760405162461bcd60e51b815260040161064490612487565b6116fd8282611e8a565b90945550505050565b6000808484600081811061171657fe5b905060200201359050634000000081106117425760405162461bcd60e51b81526004016106449061270f565b6001818101600088611755576004611758565b60025b905060005b82841015611a4a578382018881106117875760405162461bcd60e51b815260040161064490612402565b60008a8a8381811061179557fe5b905060200201359050634000000081106117c15760405162461bcd60e51b81526004016106449061264c565b8181016001018a8111156117e75760405162461bcd60e51b8152600401610644906127e2565b8c156118c55760008c8c8990849261180193929190612a94565b604051602001611812929190612201565b6040516020818303038152906040528051906020012090508c8c60018a0181811061183957fe5b905060200201356001600160a01b03168d8d60008b0181811061185857fe5b905060200201357f4264ac208b5fde633ccdd42e0f12c3d6d443a4f3779bbf886925b94665b63a228f8f60038d0190879261189593929190612a94565b6040516118a39291906122ab565b60405180910390a3600090815260208b90526040902080546001019055611a40565b60008c8c899084926118d993929190612a94565b6040516020016118ea929190612201565b60408051601f1981840301815291815281516020928301206000818152928e90529120549091508061192e5760405162461bcd60e51b8152600401610644906128ee565b600091825260208c9052604082208290559490940160001901938c8c60028a0181811061195757fe5b90506020020135905060608d8d60058b0190859261197793929190612a94565b80806020026020016040519081016040528093929190818152602001838360200280828437600081840152601f19601f8201169050808301925050505050505090508d8d60038b018181106119c857fe5b905060200201358e8e60018c018181106119de57fe5b905060200201358f8f60008d018181106119f457fe5b905060200201356001600160a01b03167f9592d37825c744e33fa80c469683bbd04d336241bb600b574758efd182abe26a8486604051611a3592919061230a565b60405180910390a450505b955061175d915050565b828414611a695760405162461bcd60e51b81526004016106449061270f565b8015611aed576000336001600160a01b031682604051611a8890612232565b60006040518083038185875af1925050503d8060008114611ac5576040519150601f19603f3d011682016040523d82523d6000602084013e611aca565b606091505b5050905080611aeb5760405162461bcd60e51b815260040161064490612925565b505b509198975050505050505050565b611b0433611183565b611b205760405162461bcd60e51b81526004016106449061283c565b6000611b2a611d0c565b90506001600160a01b038216611b525760405162461bcd60e51b815260040161064490612865565b611b5b82611183565b15611b785760405162461bcd60e51b81526004016106449061245d565b60018101546001600160a01b031615611ba35760405162461bcd60e51b8152600401610644906128b7565b6001810180546001600160a01b0319166001600160a01b0384161790556040517f6166272c8d3f5f579082f2827532732f97195007983bb5b83ac12c56700b01a690611630908490612297565b6000611bfa611d0c565b60018101549091506001600160a01b03163314611c295760405162461bcd60e51b8152600401610644906126ac565b611c3233611dca565b60010180546001600160a01b0319169055565b6107706040518060600160405280602d8152602001612bf1602d913982611260565b611c7033611183565b611c8c5760405162461bcd60e51b81526004016106449061283c565b6000611c96611d0c565b60018101549091506001600160a01b031615610770576001810180546001600160a01b03191690556040517f7a8dc7dd7fffb43c4807438fa62729225156941e641fd877938f4edade3429f590600090a150565b610770604051806060016040528060238152602001612bce6023913982611260565b6000806040518060400160405280601c81526020017f535441524b4e45545f312e305f474f5645524e414e43455f494e464f000000008152506040516020016112019190612216565b60008082604051602001611d699190612216565b60408051601f1981840301815291905280516020909101209392505050565b3b151590565b610770604051806060016040528060228152602001612b2d6022913982611e99565b805182556020810151600183015560400151600290910155565b611dd381611183565b15611df05760405162461bcd60e51b81526004016106449061245d565b6000611dfa611d0c565b6001600160a01b03831660009081526020829052604090819020805460ff19166001179055519091507fcfb473e6c03f9a29ddaf990e736fa3de5188a0bd85d684f5b6e164ebfbfff5d290611630908490612297565b366000611e606002828587612a94565b915091505b9250929050565b600082826000818110611e7b57fe5b90506020020135905092915050565b600082826001818110611e7b57fe5b6000611ea48361114f565b6001600160a01b031614611eca5760405162461bcd60e51b81526004016106449061258b565b610a788282611260565b60405180606001604052806000815260200160008152602001600081525090565b60008083601f840112611f06578182fd5b50813567ffffffffffffffff811115611f1d578182fd5b6020830191508360208083028501011115611e6557600080fd5b600060208284031215611f48578081fd5b8135611f5381612b17565b9392505050565b60008060208385031215611f6c578081fd5b823567ffffffffffffffff811115611f82578182fd5b611f8e85828601611ef5565b90969095509350505050565b600060208284031215611fab578081fd5b5035919050565b60008060208385031215611fc4578182fd5b823567ffffffffffffffff80821115611fdb578384fd5b818501915085601f830112611fee578384fd5b813581811115611ffc578485fd5b86602082850101111561200d578485fd5b60209290920196919550909350505050565b60008060008084860360c0811215612035578283fd5b85359450602086013561204781612b17565b9350604086013592506060605f1982011215612061578182fd5b506040516060810181811067ffffffffffffffff82111715612081578283fd5b8060405250606086013581526080860135602082015260a086013560408201528091505092959194509250565b6000806000604084860312156120c2578283fd5b83359250602084013567ffffffffffffffff8111156120df578283fd5b6120eb86828701611ef5565b9497909650939450505050565b6000806000806060858703121561210d578384fd5b8435935060208501359250604085013567ffffffffffffffff811115612131578283fd5b61213d87828801611ef5565b95989497509550505050565b600080600080600060808688031215612160578081fd5b8535945060208601359350604086013567ffffffffffffffff811115612184578182fd5b61219088828901611ef5565b96999598509660600135949350505050565b81835260006001600160fb1b038311156121ba578081fd5b6020830280836020870137939093016020019283525090919050565b60006001600160fb1b038311156121eb578081fd5b6020830280838637939093019283525090919050565b600061220e8284866121d6565b949350505050565b60008251612228818460208701612ae7565b9190910192915050565b90565b60008682528560208301528460408301526122546060830184866121d6565b979650505050505050565b600088825287602083015286604083015285606083015284608083015261228a60a0830184866121d6565b9998505050505050505050565b6001600160a01b0391909116815260200190565b60006020825261220e6020830184866121a2565b6000604082526122d36040830185876121a2565b9050826020830152949350505050565b6000606082526122f76060830186886121a2565b6020830194909452506040015292915050565b604080825283519082018190526000906020906060840190828701845b8281101561234357815184529284019290840190600101612327565b50505092019290925292915050565b901515815260200190565b90815260200190565b918252602082015260400190565b60006020825282602083015282846040840137818301604090810191909152601f909201601f19160101919050565b60006020825282518060208401526123c2816040850160208701612ae7565b601f01601f19169190910160400192915050565b602080825260129082015271115250d7d393d517d057d0d3d395149050d560721b604082015260600190565b602080825260119082015270135154d4d051d157d513d3d7d4d213d495607a1b604082015260600190565b602080825260169082015275494c4c4547414c5f494e49545f444154415f53495a4560501b604082015260600190565b60208082526010908201526f20a62922a0a22cafa3a7ab22a92727a960811b604082015260600190565b6020808252601590820152741253959053125117d41491559253d554d7d493d3d5605a1b604082015260600190565b6020808252601390820152720929cac82989288be869e9c8c928ebe9082a69606b1b604082015260600190565b6020808252601390820152721053149150511657d253925512505312569151606a1b604082015260600190565b6020808252601c908201527f43414e43454c5f414c4c4f5745445f54494d455f4f564552464c4f5700000000604082015260600190565b60208082526024908201527f4d4553534147455f43414e43454c4c4154494f4e5f4e4f545f414c4c4f57454460408201526317d6515560e21b606082015260800190565b6020808252600b908201526a1053149150511657d4d15560aa1b604082015260600190565b60208082526017908201527f4d41585f4c315f4d53475f4645455f4558434545444544000000000000000000604082015260600190565b6020808252601a908201527f494e56414c49445f46494e414c5f424c4f434b5f4e554d424552000000000000604082015260600190565b602080825260149082015273554e45585045435445445f494e49545f4441544160601b604082015260600190565b6020808252601690820152750929cac82989288bea082b2989e8288be988a9c8ea8960531b604082015260600190565b6020808252601690820152751112549150d517d0d0531317d11254d0531313d5d15160521b604082015260600190565b60208082526017908201527f4f4e4c595f43414e4449444154455f474f5645524e4f52000000000000000000604082015260600190565b6020808252601290820152712120a22fa4a724aa24a0a624ad20aa24a7a760711b604082015260600190565b6020808252601c908201527f494e56414c49445f4d4553534147455f5345474d454e545f53495a4500000000604082015260600190565b60208082526018908201527f535441524b4e45545f4f55545055545f544f4f5f4c4f4e470000000000000000604082015260600190565b6020808252601490820152731393d7d35154d4d051d157d513d7d0d05390d15360621b604082015260600190565b60208082526019908201527f535441524b4e45545f4f55545055545f544f4f5f53484f525400000000000000604082015260600190565b60208082526019908201527f5452554e43415445445f4d4553534147455f5041594c4f414400000000000000604082015260600190565b60208082526009908201526811925390531256915160ba1b604082015260600190565b6020808252600f908201526e4f4e4c595f474f5645524e414e434560881b604082015260600190565b6020808252600b908201526a4241445f4144445245535360a81b604082015260600190565b6020808252601390820152721253925517d110551057d513d3d7d4d3505313606a1b604082015260600190565b60208082526017908201527f4f544845525f43414e4449444154455f50454e44494e47000000000000000000604082015260600190565b6020808252601a908201527f494e56414c49445f4d4553534147455f544f5f434f4e53554d45000000000000604082015260600190565b60208082526013908201527211551217d514905394d1915497d19052531151606a1b604082015260600190565b6020808252600d908201526c27a7262cafa7a822a920aa27a960991b604082015260600190565b60208082526014908201527324a72b20a624a22fa12627a1a5afa72aa6a122a960611b604082015260600190565b602080825260149082015273474f5645524e4f525f53454c465f52454d4f564560601b604082015260600190565b6020808252600c908201526b2727aa2fa3a7ab22a92727a960a11b604082015260600190565b60208082526022908201527f4d4553534147455f43414e43454c4c4154494f4e5f4e4f545f52455155455354604082015261115160f21b606082015260800190565b60208082526021908201527f4c315f4d53475f4645455f4d5553545f42455f475245415445525f5448414e5f6040820152600360fc1b606082015260800190565b9283526020830191909152604082015260600190565b60008085851115612aa3578182fd5b83861115612aaf578182fd5b5050602083020193919092039150565b60008085851115612ace578081fd5b83861115612ada578081fd5b5050820193919092039150565b60005b83811015612b02578181015183820152602001612aea565b83811115612b11576000848401525b50505050565b6001600160a01b038116811461077057600080fdfe535441524b4e45545f312e305f494e49545f56455249464945525f41444452455353535441524b4e45545f312e305f524f4c45535f4f50455241544f52535f4d415050494e475f544147535441524b4e45545f312e305f4d5347494e475f4c31544f4c325f43414e43454c4c4154494f4e5f4d41505050494e47535441524b4e45545f312e305f494e49545f535441524b4e45545f53544154455f535452554354535441524b4e45545f312e305f494e49545f50524f4752414d5f484153485f55494e54535441524b4e45545f312e305f4d5347494e475f4c31544f4c325f43414e43454c4c4154494f4e5f44454c4159535441524b4e45545f312e305f535441524b4e45545f434f4e4649475f48415348535441524b4e45545f312e305f4d5347494e475f4c32544f4c315f4d41505050494e47535441524b4e45545f312e305f4d5347494e475f4c31544f4c325f4d41505050494e475f5632535441524b574152455f434f4e5452414354535f474f564552454e45445f46494e414c495a41424c455f312e305f544147a2646970667358221220749105af4323f28521c03a1b6b128ff7ceb5750ce7bcf9475b742af277f1611264736f6c634300060c0033",
    "linkReferences": {}
  },
  "methodIdentifiers": {
    "cancelL1ToL2Message(uint256,uint256,uint256[],uint256)": "6170ff1b",
    "configHash()": "e1f1176d",
    "consumeMessageFromL2(uint256,uint256[])": "2c9dd5c0",
    "finalize()": "4bb278f3",
    "getMaxL1MsgFee()": "54eccba4",
    "identify()": "eeb72866",
    "initialize(bytes)": "439fab91",
    "isFinalized()": "8d4e4083",
    "isFrozen()": "33eeb147",
    "isOperator(address)": "6d70f7ae",
    "l1ToL2MessageCancellations(bytes32)": "9be446bf",
    "l1ToL2MessageNonce()": "018cccdf",
    "l1ToL2Messages(bytes32)": "77c7d7a9",
    "l2ToL1Messages(bytes32)": "a46efaf3",
    "messageCancellationDelay()": "8303bd8a",
    "programHash()": "8a9bf090",
    "registerOperator(address)": "3682a450",
    "sendMessageToL2(uint256,uint256,uint256[])": "3e3aa6c5",
    "setConfigHash(uint256)": "3d07b336",
    "setMessageCancellationDelay(uint256)": "c99d397f",
    "setProgramHash(uint256)": "e87e7332",
    "starknetAcceptGovernance()": "946be3ed",
    "starknetCancelNomination()": "e37fec25",
    "starknetIsGovernor(address)": "01a01590",
    "starknetNominateNewGovernor(address)": "91a66a26",
    "starknetRemoveGovernor(address)": "84f921cd",
    "startL1ToL2MessageCancellation(uint256,uint256,uint256[],uint256)": "7a98660b",
    "stateBlockHash()": "382d83e3",
    "stateBlockNumber()": "35befa5d",
    "stateRoot()": "9588eca2",
    "unregisterOperator(address)": "96115bc2",
    "updateState(uint256[])": "853e2461"
  },
  "id": 37
}